:100000000C9437060C9454060C9454060C948B30C4
:100010000C9454060C9454060C9454060C945406F8
:100020000C9454060C9454060C94BC1A0C94801A2C
:100030000C94DF260C9454060C9454060C9454062D
:100040000C9454060C9454060C9454060C945406C8
:100050000C9454060C94A41B0C9454060C94540653
:100060000C9454060C9454060C9454060C945406A8
:100070000C9454060C9454060C9454060C94540698
:100080000C9454060C9454060C9454060C94540688
:100090000C9454060C9454060C9454060C94540678
:1000A0000C9454060C9454060C94540605010980D3
:1000B000A101850319012AB700150126B700950192
:1000C00075108100C0050C0901A101850419012AE0
:1000D000A002150126A002950175108100C005013E
:1000E0000906A1018506050719E029E71500250184
:1000F0009508750181020507190029EF15002501F2
:1001000095F075018102050819012905950575010C
:100110009102950175039101C00660FF0961A1017B
:100120000962150026FF00952075088102096315F4
:100130000026FF00952075089102C005010906A15F
:1001400001050719E029E7150025019508750181CA
:10015000029501750881010507190029FF15002680
:10016000FF0095067508810005081901290515008D
:100170002501950575019102950175039101C02036
:100180002020206162636465666768696A6B6C6DD4
:100190006E6F707172737475767778797A313233E5
:1001A00034353637383930524542545F2D3D5B5D2A
:1001B0005C233B27602C2E2F202020000000000015
:1001C000000000000000000000000000000000002F
:1001D0000000000000000000000000000000007EA1
:1001E0000F00D4FFFFFFC7000000780000000000F0
:1001F0000000002A2B280000000000000000000082
:1002000000000000000029000000002C1E34202106
:100210002224342627252E362D3738271E1F20214D
:1002200022232425263333362E37381F04050607AC
:1002300008090A0B0C0D0E0F1011121314151617C6
:1002400018191A1B1C1D2F3130232D3504050607E4
:1002500008090A0B0C0D0E0F1011121314151617A6
:1002600018191A1B1C1D2F3130354C00DA0281FF82
:10027000D9F1DB20A4A62EAF00A0C0D30000A1C8F6
:10028000D30000AED580A81F408D1420001E0F059E
:1002900000047F3F1F643214643214783C1E1E1425
:1002A0000A05556E6465660041646A757374005290
:1002B00061697365004C6F776572004465666175AE
:1002C0006C74004C617965723A20003A002C206B06
:1002D000007800808182838485868788898A8B8CD8
:1002E0008D8E8F9091929394A0A1A2A3A4A5A6A76E
:1002F000A8A9AAABACADAEAFB0B1B2B3B4C0C1C2E5
:10030000C3C4C5C6C7C8C9CACBCCCDCECFD0D1D245
:10031000D3D4000001010101010101010102020227
:1003200002020202020203030303030303030404A1
:10033000040404040405050505050606060606076B
:100340000707070708080808090909090A0A0A0B24
:100350000B0B0C0C0C0D0D0D0E0E0E0F0F0F1010C5
:10036000111111121213131414151516161717184C
:100370001819191A1A1B1B1C1D1D1E1E1F202021B7
:100380002222232424252626272829292A2B2C2DFE
:100390002D2E2F30313232333435363738393A3B1F
:1003A0003C3D3E3F404142434445464748494A4C14
:1003B0004D4E4F50515354555658595A5B5D5E5FE0
:1003C000616264656668696B6C6D6F707273757776
:1003D000787A7B7D7E8082838587888A8C8E8F91D8
:1003E000939596989A9C9EA0A2A3A5A7A9ABADAF02
:1003F000B1B3B5B7BABCBEC0C2C4C6C9CBCDCFD1EC
:10040000D4D6D8DBDDDFE2E4E7E9EBEEF0F3F5F894
:10041000FAFDFFFFAA7F55402223252628292A2CF2
:100420002D2F3032333536383A3B3D3E404243453E
:1004300047494A4C4E5051535557595A5C5E606279
:10044000646668696B6D6F71737577797B7D7F8189
:10045000838587898A8C8E90929496989A9C9E9F89
:10046000A1A3A5A7A8AAACAEAFB1B3B4B6B8B9BBA7
:10047000BCBEBFC1C2C3C5C6C7C9CACBCCCDCED016
:10048000D1D2D2D3D4D5D6D7D7D8D9D9DADADBDB03
:10049000DBDCDCDCDCDCDDDDDDDDDCDCDCDCDCDB9A
:1004A000DBDBDADAD9D9D8D7D7D6D5D4D3D2D2D1E3
:1004B000D0CECDCCCBCAC9C7C6C5C3C2C1BFBEBCD6
:1004C000BBB9B8B6B4B3B1AFAEACAAA8A7A5A3A147
:1004D0009F9E9C9A98969492908E8C8A8987858309
:1004E000817F7D7B79777573716F6D6B69686664E9
:1004F00062605E5C5A5957555351504E4C4A4947B9
:10050000454342403E3D3B3A3836353332302F2D5D
:100510002C2A29282625232200AF00AE2B00140008
:100520001A00080015001700E0000400160007007C
:1005300009000A00E1001D001B000600190005006B
:10054000000000000000E300777C2C002A0013006C
:1005500012000C0018001C00340033000F000E00C5
:100560000D000B0029003800370036001000110084
:10057000000000000000E600787C28002B001E0030
:100580001F00200021002200E00000000000000009
:1005900000000000E100000000000000000000007A
:1005A000000000000000E30001002C002A002700EA
:1005B0002600250024002300000000004F00520008
:1005C000510050000000000000000000000000008A
:1005D000000000000000E600010028002B001E02C1
:1005E0001F02200221022202E000000000000000A1
:1005F00000000000E100000000000000000000001A
:10060000000000000000E30001002C002A00270287
:1006100026022502240223023500310030002F007B
:100620002E002D003502310230022F022E022D0243
:10063000000000000000E60001002800007C00002F
:10064000000000000000000020782378257827783B
:100650000000000021782478267828780000000027
:10066000000000000000E30001002C00000000007A
:10067000000000000000000000000000000000007A
:10068000000000000000000000000000000000006A
:10069000000000000000E6000100280009025B00E5
:1006A000030100A0FA09040000010301010009216F
:1006B000110100012244000705810308000109041B
:1006C00001000203000000092111010001222200A3
:1006D0000705820320000107050303200001090428
:1006E00002000103000000092111010001226D0038
:1006F00007058403200001120100020000000853D6
:100700004601000100010200010C0343006F00726A
:10071000006E0065000000100366006F006F00733C
:1007200000740061006E0000000403090400000072
:100730000000003E5B4F5B3E003E6B4F6B3E001C7B
:100740003E7C3E1C00183C7E3C18001C577D571C0C
:10075000001C5E7F5E1C0000183C180000FFE7C311
:10076000E7FF00001824180000FFE7DBE7FF003078
:10077000483A060E00262979292600407F050507FC
:1007800000407F05253F005A3CE73C5A007F3E1C55
:100790001C0800081C1C3E7F0014227F2214005FEE
:1007A0005F005F5F0006097F017F00006689956A30
:1007B0000060606060600094A2FFA2940008047E64
:1007C00004080010207E20100008082A1C080008D9
:1007D0001C2A0808001E10101010000C1E0C1E0C05
:1007E0000030383E383000060E3E0E060000000095
:1007F00000000000005F0000000007000700001478
:100800007F147F1400242A7F2A12002313086462B5
:1008100000364956205000000807030000001C2243
:100820004100000041221C00002A1C7F1C2A0008F5
:10083000083E08080000807030000008080808081A
:10084000000000606000002010080402003E5149D2
:10085000453E0000427F4000007249494946002160
:1008600041494D33001814127F1000274545453982
:10087000003C4A49493100412111090700364949E4
:10088000493600464949291E0000001400000000B6
:100890004034000000000814224100141414141401
:1008A000000041221408000201590906003E415D82
:1008B000594E007C1211127C007F49494936003E96
:1008C00041414122007F4141413E007F4949494128
:1008D000007F09090901003E41415173007F08086A
:1008E000087F0000417F4100002040413F01007F20
:1008F00008142241007F40404040007F021C027FDC
:10090000007F0408107F003E4141413E007F0909FD
:100910000906003E4151215E007F09192946002643
:10092000494949320003017F0103003F4040403FF5
:10093000001F2040201F003F4038403F0063140844
:100940001463000304780403006159494D43000017
:100950007F41414100020408102000004141417FD5
:100960000004020102040040404040400000030730
:100970000800002054547840007F28444438003850
:100980004444442800384444287F003854545418C0
:100990000000087E0902001824241C78007F080447
:1009A00004780000447D4000002040403D00007F6E
:1009B000102844000000417F4000007C0478047847
:1009C000007C08040478003844444438007C18242F
:1009D000241800182424187C007C0804040800480B
:1009E000545454240004043F4424003C4040207CE0
:1009F000001C2040201C003C4030403C004428109B
:100A00002844004C9090907C004464544C44000076
:100A10000836410000000077000000004136080061
:100A2000000201020402003C2623263C00000000D4
:100A300000000000000000000000000000C0E0F026
:100A4000F8F81800C0F0FCFEFFFFFFFFFFFFFF7E7D
:100A500000000000000000000080C0E0E0E0E0E0F6
:100A6000E0E0E0C0800000000080C0E0E0E0E0E006
:100A7000E0E0E0C080000000E0E0C0C0E0E0E0E0D6
:100A80000000E0E0C0C0E0E0E0E0E0C08000000086
:100A90000080C0E0E0E0E0E0E0E0E0C080000000D6
:100AA0000000000000000000000000E0F0F0F0E0B6
:100AB000ECEEF7F37020007C7C7C7E007E7E7E7FF7
:100AC0007F7F000080C0E07E5B4F5BFEC00000C007
:100AD00000DCD7DEDEDED7DC00C000000000000056
:100AE0000000000000000000000000000000000006
:100AF000000000000000F8FCFEFFE000FFFFFFFF29
:100B0000FFFF80FFFFFFFFFFFFFFFFFF1F07010049
:100B10000000000000000000FFFFFF810000000057
:100B2000000081C3C3C30000FFFFFF81000000007D
:100B3000000081FFFFFF0000FFFFFF010000000039
:100B40000000FFFFFF010000000001FFFFFF0000A9
:100B5000FFFFFF9D1C1C1C1C1C1C9DDFDFDF000019
:100B600000000000000000000000000F1F3F7F7F1A
:100B70007F7F7F3F1E0C001F1F1F3F003F3F3F7FB7
:100B80007F7F00307B7F7830202030787F3B0003F0
:100B9000000F7F0F0F0F7F0F000300000000000009
:100BA0000000000000000000000000000000000045
:100BB000000000000000030F1F3F3F3F3F1F1F3F8B
:100BC0003F7F7F7F3F3F1F3F7F7F7F7F7C787838ED
:100BD0001C0F0000000000000001030707070707C3
:100BE00007070703010000000001030707070707C5
:100BF00007070703010000000707070000000000C7
:100C000000000707070000000000000707070000BA
:100C10000001030707070707070707030100000094
:100C200000000000000000000000000000000000C4
:100C300000000000000000000000000000000000B4
:100C400000000000000000000000000000000000A4
:100C50000000000000000000000000000000000094
:100C6000000000000000000000000000000011244F
:100C70001FBECFEFDAE0DEBFCDBF11E0A0E0B1E0F4
:100C8000E0E7F7E602C005900D92A03EB107D9F764
:100C900027E0A0EEB1E001C01D92A431B207E1F758
:100CA0000E9408270C94B6330C940000482F209122
:100CB00005059091CC0457E0291302C080E0089507
:100CC00030E0529FF001539FF00D1124E353FB4F8E
:100CD0008181681306C08081481303C0858181111A
:100CE000EECF2F5F3F4F2770E7CFFC01AC014C5F89
:100CF0005F4F8FEF91E32191822728E030E087FF5B
:100D000009C0880F892721503109C9F7E417F50771
:100D100091F70895880FF7CFE8EDF0E080818E7F9E
:100D200080831092E2001092DA001092E100A0EEAF
:100D3000B0E08C9181608C9380818F77808319BC27
:100D4000A7EDB0E08C918E7F8C9380818F7E808325
:100D50001092B70408952091E4003091E50085E6F3
:100D60009091EC0090FF06C09091E80090FF06C0C3
:100D700080E008959091E80092FDFACF9091C2042E
:100D8000992391F0953091F09091EB0095FD10C072
:100D90004091E4005091E5002417350709F3815094
:100DA0009A01F1F684E0089582E0089583E00895C1
:100DB00081E008958091C40487FF13C08091E8000A
:100DC00082FF06C08091E8008B778093E80004C022
:100DD0008091C2048111F2CF08958091C2048823CA
:100DE000D9F38091E80080FFF8CF8091E8008E77FA
:100DF000ECCF982F9093E900242F762F50E089179D
:100E000031F07091EC002091ED005091F00021FD47
:100E100007C09F5F973071F78093E90081E00895E4
:100E20003091EB003E7F3093EB003091ED003D7F41
:100E30003093ED003091EB0031603093EB00709314
:100E4000EC002093ED005093F0002091EE0027FD80
:100E5000E0CF80E00895B0E0A0E0E1E3F7E00C949B
:100E6000C631C8EDD0E088818F7E8883E7EDF0E061
:100E700080818160808384E082BF81E08093B704B9
:100E800088818E7F888302EE10E0F8011082109234
:100E9000DA0081EEC82ED12CF601108288818F777E
:100EA000888388818068888388818F7D888319BC46
:100EB0001092C2041092C3041092C1041092C00494
:100EC00090EEE92EF12CF70180818B7F8083888161
:100ED0008160888342E060E080E00E94F906F601CC
:100EE00080818E7F8083F801808181608083808112
:100EF00088608083F70180818E7F80838881806114
:100F00008883CDB7DEB7E8E00C94E231FC01809134
:100F1000CA049091CB0486179707A0F0611571055C
:100F200029F49091E8009E779093E80090E0611595
:100F3000710551F4911108C08091E80082FF35C01D
:100F400080E00895BC01F2CF8091C2048823C9F1EA
:100F50008530C9F18091E80083FD31C08091E800BF
:100F600082FDEACF8091E80080FFE1CF2091F3007D
:100F70008091F200322F282F6115710519F0283069
:100F8000310558F091E02830310509F090E02091CA
:100F9000E8002E772093E800CACF81918093F1007A
:100FA000615071092F5F3F4FE7CF8091C2048823C2
:100FB00041F0853041F08091E80083FFBDCF81E0B2
:100FC000089582E0089583E008950895089587E7DD
:100FD00097E7909301088093000888E19AE00FB6A4
:100FE000F894A895809360000FBE90936000FFCFA7
:100FF0002FB7F8946091B3047091B4048091B50454
:101000009091B6042FBF0895809155010895909155
:1010100056019130D1F49091B00497FF16C0E82F9B
:10102000E695E695E695EE31D8F4F0E0E651FE4F10
:10103000282F277081E090E001C0880F2A95EAF7F9
:1010400080959281892382830895E2EEF1E0928176
:10105000891301C01282319691E0E83EF907B9F791
:101060000895909156019130C1F49091B00497FF8A
:1010700014C0E82FE695E695E695EE31F8F4F0E039
:10108000E651FE4F877021E030E001C0220F8A95C3
:10109000EAF78281822B82830895A4EEB1E0EFEF1C
:1010A00090E02D91821751F0EF3F19F4211101C00A
:1010B000E92F9F5F9630A9F7EF3F09F408950E2EB0
:1010C000000CFF0BEE51FE4FE6CFA3E0B0E0EBE6E5
:1010D000F8E00C94CC312091AE043091AF04281785
:1010E0003907A1F09093AF048093AE04E091AC0473
:1010F000F091AD04309751F024E029839B838A83DB
:101100000084F185E02DCE01019609952396E2E059
:101110000C94E831A3E0B0E0E0E9F8E00C94CC31C5
:101120002091AA043091AB0428173907A1F09093BD
:10113000AB048093AA04E091AC04F091AD04309725
:1011400051F023E029839B838A830084F185E02D7D
:10115000CE01019609952396E2E00C94E831809146
:10116000A804882359F0E091AC04F091AD043097C5
:1011700029F00190F081E02D0995089580E008950F
:10118000FC01EE0FFF1FE80FF91FEA5FFB4F6183C1
:10119000408322830895539A0895E5EEF2E0118288
:1011A0008281846082830895CF938091F803C091F7
:1011B000510180FF10C00E947E14CF91089580914C
:1011C0004F019C2F981B892F20E040E060E090E0C9
:1011D0000E94C008CF5F80915201C81780F3EBCF07
:1011E0000F931F93CF93DF939091F80390FF0BC061
:1011F000042F162FD82FC091510180915201C8178A
:1012000038F00E94D408DF91CF911F910F9108957B
:1012100080914F019C2F981B892F202F412F6D2FDC
:1012200090E00E94C008CF5FE8CFCF93DF93EC013E
:101230004091FB039C8180E090FD842F60E091FD54
:10124000642F92FF40E00E94F0088C8190E00196AC
:10125000877099278C83DF91CF910895E8EFF3E0B1
:1012600080818E7F80830E94CD08E5EEF2E082814E
:10127000816082830E94D40808958091F803982F9A
:101280009C7F61F4837084608093F8038091FB03FA
:10129000833318F082E38093FB0308958C3AB0F314
:1012A0008370886AF1CFB0E0A0E0E9E5F9E00C9442
:1012B000C431362F472FE82FF0E0ED5EFC4F71115F
:1012C0000AC0E4918E2F2E2F6E2F722FCDB7DEB76E
:1012D000EAE00C94E031C72FD0E02491F22FE22E07
:1012E000F12C56E0659FC00111240FEF10E0B8010A
:1012F0000E94A831832F90E0880F991F35E5369F13
:10130000D001379FB00D11248A1B9B0B982F990F8A
:10131000980F6801CC1ADD0ACE9CD001CF9CB00D8D
:10132000DE9CB00D11248B2F499FA0011124452F65
:1013300055276801C41AD50ACE9CA001CF9C500D38
:10134000DE9C500D1124E52F5801A91AB108AC9E5E
:101350006001AD9ED00CBC9ED00C1124CD2CDD24A0
:101360000C191D090E9DE0010F9DD00D1E9DD00D85
:10137000112462307105B1F058F46115710579F0EE
:101380006130710509F4A0CFE22F2B2F852F9CCF60
:101390006430710571F048F066307105A9F7E22FED
:1013A0002D2F92CFEB2F8D2F8FCFEB2F822F252F2D
:1013B0008BCF2B2F8F2FED2F87CF9091F80390FF9E
:1013C0000EC0433308F042E3762F682F842F0E942B
:1013D0005309962F672F482F892F0E94F0080895F0
:1013E000CF93DF93EC01E8EFF3E0438162818C81DE
:1013F0000E94DD098C818F5F8C83DF91CF910895EE
:10140000CF93DF93EC01EC81F0E0E85EFB4F449179
:10141000E8EFF3E0628181810E94DD098C818F5FBA
:101420008C83DF91CF910895CF93762FC22F682FB1
:10143000842F0E945309472F90914F01C91B282FD9
:101440008C2F90E00E94C008CF9108950F931F93B6
:10145000CF93DF938C01D0E0C0E0909153019C17B3
:101460001D0609F074F40E94D408F801848190E00C
:101470000196817099278483DF91CF911F910F91FD
:101480000895F8014481209151012C0F3D2F311D09
:101490006091FA038091F90396959C171D0661F0FF
:1014A0005CF0442359F04091FB03433308F042E3DE
:1014B0000E94140A2196D1CF4423A9F340E0F8CF2B
:1014C000B0E0A0E0E6E6FAE00C94C231EC014C8119
:1014D000042F10E09801D8010E9404339B01AC0155
:1014E0000E94CF324B015C01E0E2F0E0E01BF10B27
:1014F000A5E5B0E0AC019B010E94CF326B017C01FD
:101500009F01DF010E944E339B01AC010E94DA3241
:101510009B01AC01280D391D4A1D5B1DC701B60199
:101520000E94E232022F30E00A3258F5C901880FDA
:10153000991F880F991F281B390B37FF02C02F5F97
:101540003F4F359527951FEF120FF12C85E5E82EBB
:10155000E01A80915301F81630F10E94D4089C8162
:1015600081E0992319F0903219F48FEF80934E01A6
:1015700080914E01890F8C83CDB7DEB7ECE00C94DF
:10158000DE3185E590E0821B930B9C01220F331F17
:10159000220F331F821B930B97FD0196959587951C
:1015A0001FEF180FD2CF8E2DF1FC802F209151010B
:1015B0002F0D3327331F412F133308F042E360917F
:1015C000FA030E94140AF394C4CF1F93CF93DF93BE
:1015D000EC018C81811109C081E08C831092E902B9
:1015E00092E090934D0180934C01109151018091B4
:1015F0005201181748F110E060915301161788F155
:101600000E94D40880914C012091E902280F209378
:10161000E90290914D01980F90934D01191654F4E1
:10162000022E000C330B409153014150550B2417EF
:10163000350734F0819580934C01813009F41C8288
:10164000DF91CF911F91089580914F01912F981BA9
:10165000892F20E040E060E090E00E94C0081F5F1A
:10166000C6CFE12FF0E070E0CF010E942D33209132
:101670005101820F2091E902022E000C330BE21778
:10168000F307BCF020914D01022E000C330B2E17F6
:101690003F077CF0282F30E04091FB03433308F0F4
:1016A00042E36091FA038091F9030E94140A1F5FDC
:1016B000A3CF90914F01891B20E040E060E090E0D3
:1016C0000E94C008F4CFB0E0A0E0E9E6FBE00C9493
:1016D000C431EC018A81DD24D39480FF02C0DD2473
:1016E000DA948C8181110AC081E0D81222C08091E5
:1016F000530181508093E80281E08C83C12C96E3F2
:10170000A92E80915301C816B8F00E94D408809188
:10171000E80291E0D9125AC0811153C0809153015F
:1017200081508093E8021C82CDB7DEB7EAE00C94CA
:10173000E0311092E802E0CF8091510190914F0189
:10174000891B8C0D20E040E060E090E00E94C00822
:1017500004E010E0B12CEC2CF12C8091E8028B0D10
:1017600087334CF16A2D0E941F33892F082E000CFD
:10177000990BE816F906C9F4209151012E0D3F2D61
:10178000311D8091FB03809FA001819F500D11248A
:101790005595479555954795433308F042E3609139
:1017A000FA038091F9030E94140ABD0C015011093B
:1017B000A1F6C394A6CF87FFD9CF90915301890F8B
:1017C000D5CF81508093E802DC82AECF90E00196C5
:1017D0006091530170E00E942D338093E8028C8366
:1017E000A3CFEF92FF921F93CF93DF93EC0110E012
:1017F000EE24EA94F12C60915301161770F00E94C8
:10180000D4089A818C8190FF21C08F5F8C83DF91F7
:10181000CF911F91FF90EF90089520915101210FDA
:101820003327331F4091FB03433308F042E370E05A
:10183000C7010E942D33962F8C816091FA03199F66
:10184000800D11240E94140A1F5FD5CF8150DECF76
:1018500080E00895F894E82FE295EF70F0E031A170
:10186000282F2F7081E090E001C0880F2A95EAF7B9
:10187000982F9095932391A392A1892B82A378947A
:1018800008950F931F938091A804882329F00E9444
:10189000F8071F910F9108950E94F80700918A029E
:1018A00010918B0220918C0230918D02600F711F7C
:1018B000821F931FEECF9091B00492FF10C041E0C1
:1018C000282F2471243009F040E031E0282F2871BE
:1018D000283009F030E0431711F02CE0822793FF05
:1018E00010C041E0282F2471243109F040E031E09C
:1018F000282F2871283109F030E0431711F02CE02F
:1019000082273091B10430FF10C051E0282F21719F
:10191000213009F050E041E0282F2871283009F0EB
:1019200040E0541711F029E0822731FF10C041E058
:10193000282F2171213109F040E031E0282F287152
:10194000283109F030E0431711F029E0822794FD97
:10195000877E089582389105B9F1B0F481339105FD
:1019600009F47DC048F48932910509F46DC08A32CA
:10197000910509F479C008958533910509F45FC094
:101980008933910509F10895833E9105D9F138F421
:10199000803E910529F1823E910579F10895863EB8
:1019A0009105D9F1873E910509F43EC0843E910529
:1019B00041F52091B10421FF24C08091B00484FD41
:1019C00019C087EE90E008952091B004237009F0CB
:1019D00056C02091B10423FF14C089E290E008951D
:1019E0002091B00420FD38C03091B10430FF09C00F
:1019F00024FF3FC090E080E008952091B00422FDD4
:101A0000F7CF08952091B00422FD36C03091B10483
:101A100030FD35C024FDEECFF4CF2091B00423FF7C
:101A2000F0CF24FDE7CFCDCF2091B00423FD2AC015
:101A30003091B10431FFEECF84EE90E00895209113
:101A4000B00425FDCACF08952091B00425FD1DC026
:101A50002091B10423FFD5CF89E390E00895209130
:101A6000B00426FD15C008952091B00426FD13C0D2
:101A7000089583EE90E0089582EE90E0089580EE60
:101A800090E0089586EE90E0089585E390E0089553
:101A90008AE290E0089581E390E0B3CF1F93CF9363
:101AA000DF930E94AA0CEC01C11580E5D807E8F588
:101AB000C11580E4D80708F09BC0C03ED10518F5D9
:101AC000CD3CD10508F081C0C83AD10570F4C53AC3
:101AD000D10508F072C0C130D10511F118F0C43041
:101AE000D105F0F4D0E0C0E01BC0C33CD105D0F775
:101AF000C85AD0E0CC0FDD1FC55ADE4F0990D881FF
:101B0000C02DD4640DC0C11580E2D80708F0CBC049
:101B1000C11581E0D80708F05AC0C83ED10510F7BA
:101B2000CE01DF91CF911F910895C03682E5D8078D
:101B300018F5C03482E5D80708F069C0C03282E5E4
:101B4000D80708F05DC0C11582E5D80708F493C036
:101B50002C2F2695269580E2289F900111248C2F0A
:101B60008370C1E0D0E002C0CC0FDD1F8A95E2F7A0
:101B7000C22BD32BDD68D4CFC03A82E5D80760F4FE
:101B8000C03882E5D80708F457C0CF71D0E0DC2F09
:101B9000CC27C46FD06AC4CFC03C82E5D80708F414
:101BA0005EC0C03E82E5D80708F09CCFDC2FCC2772
:101BB000CC27DF71C06FD06AB3CFC55AD0E0C85A06
:101BC000DE4FC881D0E0D064ABCFD065A9CF8D2FD8
:101BD0000E945B0C182FCE0199270E94AA0CC12FDE
:101BE000D0E0DC2FCC27CC27DF71C82BD92B98CFA6
:101BF000CE0199270E94AA0CCC27DF70D06AF5CFBE
:101C0000CF71D0E0DC2FCC27C16FD06A89CF2C2FC9
:101C100026952695277080E2289F900111248C2F0D
:101C20008370C1E0D0E002C0CC0FDD1F8A95E2F7DF
:101C3000DC68C22BD32B74CF2C2F269526952770CA
:101C400080E2289F900111248C2F8370C1E0D0E0A6
:101C500002C0CC0FDD1F8A95E2F7DA68EACF8C2F3D
:101C60008F710E945B0CC82FD0E0DC2FCC27CC27D3
:101C7000DF71D06255CF8C2F8F710E945B0C55E0C5
:101C8000D695C7955A95E1F7CF70D0E0DC2FCC27D9
:101C9000282F30E084FF05C044E0220F331F4A950F
:101CA000E1F7D069C6CF8D2F8F710E945B0C182F82
:101CB000CE0199270E94AA0CC12FD0E0DC2FCC279F
:101CC000CC27DF71906291CF982F90958091500230
:101CD00089238093500208958091500290912702A9
:101CE000892B90912602992391F0892B909156018E
:101CF000913071F49091B00497FF0AC09EE1ECEE30
:101D0000F1E020E0915040F4211110922602089554
:101D100096E0E4EEF1E0F5CF3191332399F32F5FB4
:101D2000F1CF809105059091CC04981301C00895DE
:101D30008F5F8770FACF292F983078F5863068F555
:101D400090E036E0239F800D911D1124682F67706D
:101D500023E0969587952A95E1F7FC01EE0FFF1F8A
:101D6000E80FF91FE45FFD4F50E040E080E0219173
:101D700030E0062E02C0369527950A94E2F72170CE
:101D80003327042E01C0220F0A94EAF7822B4F5FFB
:101D90005F4F4330510559F7089580E00895292F8A
:101DA000983098F5863088F590E036E0239F800DD6
:101DB000911D1124282F277041E001C0440F2A955E
:101DC000EAF723E0969587952A95E1F7FC01EE0F57
:101DD000FF1FE80FF91FE45FFD4F30E020E070E0E7
:101DE0005191DF011197CB01022E02C09695879584
:101DF0000A94E2F7817081958527842385278C9347
:101E00002F5F3F4F2330310559F708958093A60285
:101E100008959091A60221E030E0F90101C0EE0F93
:101E20008A95EAF7D90102C0AA0FBB1F6A95E2F7AB
:101E3000EA2B01C0220F4A95EAF7892F8E23E81377
:101E400005C0292B822F0E94060F08952095292373
:101E5000F9CF21E030E001C0220F8A95EAF7209502
:101E60008091A60282230E94060F08959091250278
:101E70008095892380932502282F277069F489177C
:101E800059F09091B10492FF07C08695869586958A
:101E90000E94290F10922502089521E030E001C030
:101EA000220F8A95EAF78091A602822B0E94060FE4
:101EB0000895809398020895982F92959F7020E03E
:101EC00011F0892F24E0982F9695969511F02E5FAA
:101ED000892F982F969509F02F5F822F0895CF9321
:101EE000DF93682F81E06A3019F06D3031F480E0C3
:101EF0000E94FE0FDF91CF9108958091120790917B
:101F0000130726E0FC01ACE0B7E001900D922A95A2
:101F1000E1F7603E08F459C026E0FC0111922A95D1
:101F2000E9F7C0911207D091130746E050E0BE01D7
:101F30008CE097E00E94A033892B59F1CE018C50A0
:101F400095409C0145E0369527954A95E1F741E09B
:101F500050E0BA0102C0660F771F2A95E2F79B0195
:101F600060910A0570910B05262B372B059665E0CD
:101F7000969587956A95E1F7FA0102C0EE0FFF1F6B
:101F80008A95E2F7CF01822B932B90930B058093D8
:101F90000A059E012650354040910905642F70E0E6
:101FA000C9010E94A831481B463010F4240F311D8E
:101FB0002115F2E03F0710F030E020E0245F3A4FB7
:101FC000309313072093120795CFF6E06F9FB0016F
:101FD0001124635D784F46E050E00E944F32A1CF5C
:101FE000CF93DF93EC01FE018491811103C0DF9157
:101FF000CF9108950E946F0F2196F5CFCF93382F80
:10200000E0911207F0911307EC50F540209109057B
:10201000622F70E0CF010E94A831281B822F33234A
:1020200061F066E00E941333C82FC15010F4CF91C5
:10203000089580E20E946F0FF8CF9F01280F311D95
:102040002115324018F080E0F0E0E0E08E0F9F2F85
:10205000911D845F9A4F9093130780931207E7CFE7
:102060000E94F00F81E00E94FE0F089580915601BA
:10207000813059F58091B00487FF27C00E946C0E13
:102080008093EB0140E250E068E272E08AEE91E07A
:102090000E94A033892BC1F080E2EAEEF1E0A8E2D1
:1020A000B2E001900D928A95E1F7E091AC04F091D5
:1020B000AD04309749F086E08093EA010480F58111
:1020C000E02D8AEE91E0099508950E946C0E8093B0
:1020D000E20148E050E068E472E082EE91E00E94A4
:1020E000A033892B89F388E0E2EEF1E0A8E4B2E0C6
:1020F00001900D928A95E1F7E091AC04F091AD0466
:10210000309711F30280F381E02D82EE91E0DBCF76
:1021100010925002809156018130C1F48091B00438
:1021200087FF14C0ECEEF1E08EE1DF011D928A958D
:10213000E9F790E080E00E948A0890E080E00E9449
:102140006508109227020E9436100895E4EEF1E02F
:1021500086E0EBCFAAE2B0E0E0EBF0E10C94CB310B
:10216000E4ECF4E08091F100819384E0EC3CF8072A
:10217000C9F78091C504833009F47FC008F5813028
:1021800009F456C0823009F4C4C08091E80083FF8E
:10219000FEC08091C4049091C5049A3008F0F7C045
:1021A000E92FF0E0EA52FF4E0C9441339A11C0112E
:1021B000C711C011C71118123A12C71139134613AB
:1021C0008A3009F495C08B3009F474C08930E9F67F
:1021D0008091C4048132C9F68091C8049091C904E9
:1021E000009711F0029789F68091E800877F80932D
:1021F000E8008091E80082FF3BC08091F30090915D
:10220000F200892798278927029731F48091F100FD
:10221000813011F0863021F48091F10080935501D6
:102220008091E8008B778093E8000E94DA06ADCFBA
:102230008091C404813A09F0A8CF8091E800877F9B
:102240008093E8008091C8049091C904892B61F0C3
:1022500060E090E080E070E00E9486078091E800F6
:102260008B778093E80091CF68E088EB94E0F3CF20
:102270008091C2048111BDCF88CF8091C404813A7E
:1022800009F083CF8091C8049091C904892B09F08B
:102290007CCF8091E800877F8093E8008091E80000
:1022A00080FFFCCF809156018093F1008091E8007F
:1022B0008E77B9CF8091C404813209F066CF8091C6
:1022C000C8049091C904892B09F05FCF8091E80080
:1022D000877F8093E8000E94DA0681E09091C6042F
:1022E000911101C080E0809356010E9488104DCF6B
:1022F0008091C404813209F048CF8091E800877F43
:102300008093E8000E94DA068091C704809354010C
:102310003CCF8091C404813A09F037CF8091E80026
:10232000877F8093E8008091E80080FFFCCF809158
:102330005401BACF803889F0823849F58091C804B9
:102340008F70873020F58093E9008091EB0085FB4A
:10235000882780F91092E90006C08091C00490910E
:10236000C104911182609091E800977F9093E800FA
:102370008093F1001092F1008091E8008E7727C0E1
:10238000282F2D7F21F48823A1F0823029F180911C
:10239000E80083FF0AC08091E800877F8093E8000F
:1023A0008091EB0080628093EB00AA96E3E00C94AE
:1023B000E7318091C604813051F7933009F080E015
:1023C0008093C1041092E9008091E800877F809398
:1023D000E8000E94DA06DBCF8091C6048111F2CFBB
:1023E0008091C8048F702FEF280F263080F68093DD
:1023F000E9002091EB0020FFE5CF933031F480918C
:10240000EB0080628093EB00DDCF9091EB00906158
:102410009093EB0021E030E001C0220F8A95EAF7AB
:102420002093EA001092EA008091EB008860EACFE6
:102430008111ADCF1091C6041F778091E3008078A1
:10244000812B8093E3008091E800877F8093E800F0
:102450000E94DA068091E80080FFFCCF8091E300C3
:1024600080688093E30083E0111101C082E08093D3
:10247000C2048DCF8058823008F089CF2091C604E5
:102480003091C7042C3DA3E03A07A1F583E08A838D
:102490008AE289834FB7F894DE01139620E03EE08C
:1024A00051E2E32FF0E050935700E49120FF03C086
:1024B000E295EF703F5FEF708E2F90E0EA30C0F052
:1024C000C7968D939D932F5F243159F74FBF80910D
:1024D000E800877F8093E8006AE270E0CE01019611
:1024E0000E9486078091E8008B778093E8004FCFA9
:1024F000C096E7CF8091C8049091C904432F552717
:102500004330510509F44FC078F54130510509F4C5
:1025100045C08BE590E0ECE9F6E04230510509F06A
:1025200036CF2091E800277F2093E8002091CA044D
:102530003091CB048217930708F49C0140E02115E9
:10254000310509F063C0411161C08091E80082FD4E
:10255000C9CF8091C204882329F2853019F2809175
:10256000E80083FFF2CFBECF4132510509F43FC0EE
:102570004232510509F00BCF8330910508F007CFA7
:10258000FC01EE0FFF1FED52FE4F0190F081E02D98
:1025900080539E4FDC018C9190E01DC082E190E061
:1025A000E7EFF6E0BECF332721303105C1F060F010
:1025B0002230310509F0EBCEE9E0F7E0E4918E2F0F
:1025C00090E0E9E0F7E007C0E9E2F7E0E4918E2F60
:1025D00090E0E9E2F7E0009709F4D9CEA2CFE7E175
:1025E000F7E0E4918E2F90E0E7E1F7E0F4CF83305D
:1025F000910508F0CCCE880F991FFC01E752FE4FE1
:102600000190F081E02D89E090E08BCF8091C204B1
:10261000882309F467CF853009F464CF8091E800FE
:1026200083FD60CF8091E80082FD8FCF8091E8002C
:1026300080FF85CF8091F3009091F2008927982741
:1026400089272115310519F08830910550F041E0B6
:10265000089709F040E08091E8008E778093E800C9
:102660006ECF44914093F10031962150310901968B
:10267000E8CF803809F08BCE8091E800877F809387
:10268000E8008091C3048093F10076CE81117FCE63
:102690001091C604123008F07ACE8091E800877F4E
:1026A0008093E8001093C3040E94DA061123F9F026
:1026B00084E08093C20442E061EC81E00E94F9066C
:1026C00042E261EC84E00E94F90642E261EC82E0C1
:1026D0000E94F90642E260EC83E00E94F9068091D4
:1026E000C204843051F482E08093570150CE80912F
:1026F000E30087FDDDCF81E0DCCF81E0F5CF8823EB
:1027000021F00E94640E0E9436100895882339F04B
:1027100090915002892B809350020E9436100895A8
:10272000882339F19CEF980F913A28F40E9407080A
:102730000E943610089590E2980F983050F48770F8
:1027400091E001C0990F8A95EAF7892F0E94640EE3
:10275000EFCF9BE5980F933028F490E080E00E9443
:102760008A080895885A8B3120F490E080E00E9416
:1027700065080895CF938823B9F1C82F8CEF8C0F8B
:10278000813AA0F580915601813001F58091B00425
:1027900087FF1CC0EC2FE695E695E695F0E0E65144
:1027A000FE4F828190E04C2F477021E030E002C064
:1027B000220F331F4A95E2F782239323892B79F066
:1027C0008C2F0E9407080E94361009C0E4EEF1E049
:1027D0008191C817A9F381E0EA3EF807C9F78C2F69
:1027E0000E9431080E943610CF91089580E28C0F2C
:1027F000883068F4C77021E030E001C0220FCA952C
:10280000EAF780915002822B80935002EBCFEBE5E8
:10281000EC0FE33040F4F0E0E85AFE4F808190E0A6
:102820000E948A08E1CFC85ACB31F0F6EC2FF0E0D5
:10283000EE0FFF1FE55AFE4F808191810E946508CF
:10284000D3CF0F931F93CF93DF938B01EA01909126
:10285000C204943061F58093E9008FEF9091E80015
:10286000815095FD06C095ED9A95F1F70000811114
:10287000F5CF8091E80085FF1AC00E94AB06811158
:1028800011C08091E80085FD06C08091E8008E7738
:102890008093E800F2CFF80181918F018093F100DD
:1028A000219779F78091E8008E778093E800DF9197
:1028B000CF911F910F91089543E050E0BC0184E057
:1028C0000E942114089540E250E0BC0184E00E947F
:1028D00021140895CF93DF93EC0148E050E0BC0150
:1028E00081E00E94211488E0FE01A8EBB4E0019091
:1028F0000D928A95E1F7DF91CF9108958BB1877F93
:102900009BB198602FB7F894E6E0F4E034E0E83A41
:10291000F30741F42FBF8FE594E00197F1F700C072
:1029200000000895319148E09BB9000000C037FFD6
:102930008BB9330F000000C000C000C08BB900C0CD
:102940004A9591F7E3CFB0E0A0E0E9EAF4E10C9416
:10295000C4317C015B016A018091890201E010E0D1
:102960008A3010F40AE010E0C1E0D0E0B501C70100
:10297000F6010995811104C021960C171D072CF44E
:10298000CDB7DEB7EAE00C94E031CC9F9001CD9F4B
:10299000300D300D112490E080E045E34A95F1F7C9
:1029A0000000019682179307C1F7E0CF0E948810BC
:1029B0002FEF84E39CE0215080409040E1F700C07D
:1029C000000088E19AE00FB6F894A8958093600023
:1029D0000FBE90936000FFCFCF93C82F6FEF811190
:1029E00065E284E290E00E947C326FEFC11169E001
:1029F00085E290E00E947C326FEFC11169E286E2CD
:102A000090E00E947C32CF910895CF93DF93C8EA83
:102A1000D1E060E0CE010E947C322196C11584E0B5
:102A2000D807B9F7DF91CF9108951F93CF93DF9324
:102A3000962F8430E8F46830D8F44630C8F4632F19
:102A4000122FC42FD0E0CC0FDD1F2CE0929FC00DC1
:102A5000D11D112490E6899FC00DD11D1124CE01F6
:102A600088960E947C32612FCE0189960E947C322A
:102A7000DF91CF911F910895B0E0A0E0E2E4F5E18D
:102A80000C94C631F12CE12CC12C8701D12C18C03B
:102A9000FE01E00FF11FEE0FFF1FE45EFA4F2591DC
:102AA00034914C2F6D2D8C2D0E9415152196C6301A
:102AB000D10571F70A5F1F4FD39488E0D81619F03B
:102AC000D0E0C0E0E5CFC39480E3E80EF11C84E0E1
:102AD000C812DBCFCDB7DEB7E8E00C94E23180E07E
:102AE0000E94EC1460E087E290E00E947C320E9439
:102AF0003C150E94051581E00E94EC14089584E2C3
:102B000090E00E945832853289F485E290E00E947C
:102B10005832893059F486E290E00E94583291E0B0
:102B2000893209F090E0892F8170089580E0FCCF10
:102B30000F931F93CF93DF938C01FC01C081D18150
:102B4000CE010E9458322196F801D183C083DF91D3
:102B5000CF911F910F9108950F931F93CF93DF9300
:102B6000843030F5683020F5463010F5C42FD0E0C1
:102B7000CC0FDD1F2CE0629FC00DD11D112430E66B
:102B8000839FC00DD11D1124CE0188960E9458321A
:102B9000082F10E0102F0027CE0189960E9458328E
:102BA0009801282BC901DF91CF911F910F910895B2
:102BB00090E080E0F8CF783048F4663038F4843024
:102BC00028F4462F672F0E94AC15089590E080E00E
:102BD0000895CF92DF92FF920F931F93CF93DF93CD
:102BE0006C010091A60280919802082BC3E0D0E00E
:102BF00010E0FC2EC8010C2E02C0959587950A9412
:102C0000E2F780FD0CC02197A0F7F12C8F2DDF910A
:102C1000CF911F910F91FF90DF90CF900895B60153
:102C20008C2F0E94DB150E944E0D019761F3EECFB1
:102C3000CF93DF93EC010E94E915BE010E94DB15E2
:102C40000E944E0DDF91CF910895FC012481222333
:102C5000B9F0808191810E94181692959F709630EC
:102C600089F050F49250923058F4803F19F030F4CB
:102C7000883E30F481E008959A50F5CF843FD1F337
:102C800080E00895883EB0F3813FD1F7F3CFA6E00E
:102C9000B0E0EDE4F6E10C94CB3126E0FC01DE017E
:102CA000119601900D922A95E1F7FC012581898109
:102CB0009A81222399F0662389F00E94E915182F42
:102CC000682F89819A810E94CF0E69817A81812F34
:102CD0000E94DB152696E3E00C94E7310E949B0EE0
:102CE000182FF3CFAB0124E630E0BC0188E70E9447
:102CF0005B2F21E0892B09F020E0822F089580913D
:102D0000040490910504911103C091E0892708956E
:102D1000882369F062E070E08AE195E00E94721613
:102D2000811103C0809104040895109204048091DD
:102D30000404EBCFCF93C091040480910504882351
:102D4000D1F00E94F807605A75418F4F9F4F6093F2
:102D50000004709301048093020490930304C11152
:102D600008C062E070E088E195E00E94721681116F
:102D700005C0C09104048C2FCF91089581E0809309
:102D80000404F7CFB0E0A0E0E8ECF6E10C94BE312B
:102D9000FC016280448081E08483E8E1F4E0749087
:102DA000E7E9F4E0E491C091FB03C695C158D0E097
:102DB000CC0FDD1FED2EFF24812C25E0922EAA24BE
:102DC000AA94B12C55245A94E719CE2ED12C809177
:102DD0005301881638F00E94D408CDB7DEB7E0E181
:102DE0000C94DA31082D10E082E0861568F0909E90
:102DF000F001919EF00D1124E651FD4F8091F903F1
:102E000080838091FA038183411026C0909EF00157
:102E1000919EF00D1124E651FD4F138212822091F4
:102E20005101200F312F311D909EF001919EF00D28
:102E30001124E651FD4F4281433308F042E3909E56
:102E4000F001919EF00D1124E651FD4F61818081CA
:102E50000E94140A8394BBCF909EE001919ED00DF6
:102E60001124C651DD4F8B818823E9F081508B837B
:102E7000859DC00111246C8170E00E94A831FB0186
:102E8000FF27E85EFB4F8491E82FE719E59DC0011D
:102E90001124B6010E94A8318091FB03689FB00104
:102EA00011247A83BCCF0E943F32B5010E942D339A
:102EB0008E159F050CF0B3CF82E0861588F40E9432
:102EC0003F32B5010E942D3388830E943F3220910A
:102ED000FA032695622F70E00E942D33280F298374
:102EE000909EF001919EF00D1124E651FD4F12824B
:102EF0008091FB03893C58F088EC909EF001919EF4
:102F0000F00D1124E651FD4F8483838388CF8431F3
:102F1000A0F784E1F2CFB0E0A0E0E1E9F7E10C94A2
:102F2000C23149015A016B017C010E943D098401B3
:102F3000A4016A2D7B2D88E090E00E948E329401DE
:102F40004A2D5B2DB601C70100E20E947833622F43
:102F500083E290E00E947C32CDB7DEB7ECE00C94C7
:102F6000DE31B0E0A0E0E7EBF7E10C94C731182FB9
:102F7000062FD42FE22E9091F80390FF43C02091AA
:102F8000F903281308C08091FA03861304C08091C6
:102F9000FB03841729F08091E70282608093E702A7
:102FA000E92FE695E695AE2FB0E0AB55BE4F8C917C
:102FB0008093E5029C7F943051F58D2FD33308F038
:102FC00082E3612F702F0E945309962F672F482F9D
:102FD000892F0E94F0081093F9030093FA03D0930D
:102FE000FB03EE2079F02091F8036091FC037091CF
:102FF000FD03312F402F5D2F8091FE039091FF0341
:103000000E948B17CDB7DEB7E7E00C94E331823036
:1030100019F4D091FB03DFCF863079F1893069F163
:103020008931C9F6E9518E2F8170D82EE695F0E0EE
:10303000ED5EFB4FC491F12C60915301F61618F030
:103040000E94D408C8CFFC9EC001112470E00E94E9
:10305000A831812FD1100FC0860F209151012F0D63
:103060003327331F4D2FD33308F042E3602F0E94E4
:10307000140AF394E1CF861BF0CF122FACCFE8EF08
:10308000F3E0438121E1421B08F440E021E062814A
:1030900081810E94B1170895E8EFF3E0438121E1B7
:1030A000420F08F44FEF21E0628181810E94B11745
:1030B0000895E8EFF3E0628121E1621B08F460E02B
:1030C00021E0438181810E94B1170895E8EFF3E088
:1030D000628121E1620F08F46FEF21E04381818179
:1030E0000E94B1170895E8EFF3E0818121E0438168
:1030F000628188500E94B1170895E8EFF3E0818162
:1031000021E043816281885F0E94B1170895809118
:10311000FC03882319F081508093FC032091F8036D
:103120003091F9034091FA035091FB036091FC0345
:103130007091FD038091FE039091FF030E948B1715
:1031400008958091FC03833018F48F5F8093FC0313
:103150002091F8033091F9034091FA035091FB0359
:103160006091FC037091FD038091FE039091FF0339
:103170000E948B1708959091B10492FB222720F9A9
:10318000281779F080FB92F99093B1046091B00414
:103190007091B10484E090E00E949A3282E00E9433
:1031A000360F0895B0E0A0E0E8EDF8E10C94C231EC
:1031B000C82F7B01D42F6901FB0180809180A28000
:1031C000B3800E94F807681979098A099B09643657
:1031D00071058105910510F4DD2359F10C2E000CC9
:1031E000DD0BFE0183E0EE0FFF1F8A95E1F7EC5F38
:1031F000FE4F8181928187599D4F408150E0041795
:10320000150708F4A801B6010E94AD33CE010E9453
:103210003131C82F882339F00E94F807F701608305
:103220007183828393838C2FCDB7DEB7ECE00C944F
:10323000DE31C1E0F8CFABE0B0E0E1E2F9E10C94BF
:10324000CA3188E0E8EFF3E0DE01119601900D92BB
:103250008A95E1F78091E5029091E602A091E7025C
:1032600089879A87AB8741E08B85811101C040E057
:103270000BE010E09E012F5F3F4F65E872E084E0B5
:103280000E94D21881111092E7022B96E4E00C9470
:10329000E6310F931F93CF93DF93EC0144E050E0AE
:1032A0006EE672E00E94A03341E0892B09F440E011
:1032B00004E010E09E0165E672E082E00E94D21810
:1032C000DF91CF911F910F910895CF92DF92EF92EE
:1032D000FF921F93CF93DF9300D000D0CDB7DEB71E
:1032E000C0908102D0908202E0908302F09084022C
:1032F0000E94F8076C197D098E099F0911E0643658
:1033000071058105910570F10E94410C6E5F7F4F40
:103310008F4F9F4F69837A838B839C8380911D019C
:1033200090911E0187599D4F40911C0150E04530FE
:10333000510510F044E050E0BE016F5F7F4F0E94E6
:10334000AD3383E090E00E943131182F882351F093
:103350000E94F80760938102709382028093830237
:1033600090938402812F0F900F900F900F90DF9118
:10337000CF911F91FF90EF90DF90CF9008958F92A3
:103380009F92AF92BF92EF92FF921F93CF93DF93E2
:1033900000D000D01F92CDB7DEB77B0190E080E077
:1033A0000E943131182F882309F467C0409107012A
:1033B00050E04115510511F041E050E060910801E5
:1033C0007091090167597D4FCE0105960E94AD337A
:1033D0008090610290906202A0906302B0906402BB
:1033E0000E94F807681979098A099B0964367105F2
:1033F0008105910538F48AE692E00E9475069D8168
:103400008917D9F181E090E00E943131182F88238B
:1034100091F040910F0150E04530510510F044E02B
:1034200050E0609110017091110167597D4FCE01FC
:1034300001960E94AD338AE692E00E94750691E003
:103440002D81281390E0192331F10E94F807609331
:103450006102709362028093630290936402898197
:103460009A81AB81BC8180935D0290935E02A093B0
:103470005F02B093600211E00EC080916A029091E9
:103480006B02A0916C02B0916D0289839A83AB8329
:10349000BC831111E4CF80915D0290915E02A091F6
:1034A0005F02B0916002F70180839183A283B383AE
:1034B000812F0F900F900F900F900F90DF91CF9171
:1034C0001F91FF90EF90BF90AF909F908F900895C5
:1034D0001F93CF93DF93182FEB010E94BA1320970D
:1034E00039F4812F0E949013DF91CF911F9108959D
:1034F0008FE99FE00197F1F700C000002197EFCF1F
:103500001F920F920FB60F9211242F933F934F9358
:103510005F936F937F938F939F93AF93BF93CF935B
:10352000EF93FF93C091E900CF708091EC0010926F
:10353000E9008091F000877F8093F00078940E94EA
:10354000AA101092E9008091F00088608093F0004A
:10355000C093E900FF91EF91CF91BF91AF919F91FF
:103560008F917F916F915F914F913F912F910F902C
:103570000FBE0F901F9018951F920F920FB60F92CB
:1035800011242F933F934F935F936F937F938F9368
:103590009F93AF93BF93EF93FF938091E10082FFDE
:1035A00009C08091E20082FF05C08091E1008B7F1D
:1035B0008093E1008091DA0080FF24C08091D800E0
:1035C00080FF20C08091DA008E7F8093DA008091A6
:1035D000D90080FFA9C080E189BD82E189BD09B41D
:1035E00000FEFDCF81E08093C2048091B704811179
:1035F00009C00E948C060E942B078091E200846023
:103600008093E2008091E10080FF1AC08091E20087
:1036100080FF16C08091E2008E7F8093E20080914F
:10362000E20080618093E2008091D8008062809304
:10363000D80019BC85E08093C20483E080935701D1
:103640008091E10084FF2FC08091E20084FF2BC0B5
:1036500080E189BD82E189BD09B400FEFDCF809182
:10366000D8008F7D8093D8008091E1008F7E809379
:10367000E1008091E2008F7E8093E2008091E20081
:1036800081608093E2008091C304882309F452C0D2
:1036900084E08093C2048091C204843009F452C053
:1036A00081E0809357018091E10083FF2CC08091DD
:1036B000E20083FF28C08091E100877F8093E100D2
:1036C00082E08093C2041092C3048091E1008E7F57
:1036D0008093E1008091E2008E7F8093E2008091F0
:1036E000E20080618093E20042E060E080E00E94BE
:1036F000F9068091F00088608093F00081E080936B
:10370000570180935601FF91EF91BF91AF919F9127
:103710008F917F916F915F914F913F912F910F907A
:103720000FBE0F901F90189519BC1092C2041092F2
:10373000B70468CF8091E30087FD02C081E0A9CF84
:1037400083E0A7CF82E0ADCF78941F920F920FB69F
:103750000F9211248F939F93AF93BF938091B304E3
:103760009091B404A091B504B091B6040196A11D46
:10377000B11D8093B3049093B404A093B504B093A7
:10378000B604BF91AF919F918F910F900FBE0F9094
:103790001F9018952FB7F8948091B3049091B404BA
:1037A000A091B504B091B6042FBF0895CF93DF93D5
:1037B000EC010E94CA1B8C1B9D0BDF91CF910895D9
:1037C000EF92FF920F931F93CF93DF93C62FD42FC7
:1037D000122FFC0185818823A9F0609308050E94BF
:1037E000CA1B9093070580930605C77081E001C04E
:1037F000880FCA95EAF70E948613CDB7DEB7E6E0D8
:103800000C94E43180910805681336C0E0900605F9
:10381000F09007050E94CA1B8E199F09883C9105EC
:1038200058F500E20D0FCD17B9F080E28C0F88300B
:1038300040F4C77081E001C0880FCA95EAF70E9482
:103840007F13083000F581E09D2F977001C0880F2D
:103850009A95EAF70E94861370E060E0812F0E943B
:10386000681A083050F6D77081E001C0880FDA95E9
:10387000EAF70E947F13C1CFC77081E001C0880FB3
:10388000CA95EAF7F6CF70E060E0812F0E94681ACF
:10389000B4CF8091A804882319F00E94CA1B089510
:1038A0000E94410CCB0108956091F80366956695DE
:1038B00070E04BE050E081E491E00E949333892B6B
:1038C00019F481E08093E6020E94491C9093E00283
:1038D0008093DF028091E70284608093E70208957D
:1038E0009091F80390FF3AC09370811138C09460B2
:1038F0009093F8038091E70281608093E70266234A
:1039000091F02091F8033091F9034091FA0350911E
:10391000FB036091FC037091FD038091FE03909185
:10392000FF030E948B176091F8036695669570E01F
:103930004BE050E081E491E00E949333892BB9F091
:103940000E94CD0881E08093E20220E04091FB03D9
:103950006091FA038091F9030E94B11708958B32A8
:1039600010F0986AC5CF880F880F982BC1CF0E949E
:10397000541CE8CF8091F80386958695815009F410
:103980008AE261E00E94701C08958091F803869598
:1039900086958F5F8B3208F081E061E00E94701C99
:1039A0000895A2E0B0E0E7EDFCE10C94C231FC0127
:1039B0002481222309F4BCC07C0161E00E944716E7
:1039C0008C01F7019581992309F424C181818093A9
:1039D000B10280818093B00280E28093390110931C
:1039E000AF020093AE02980130522115304208F028
:1039F00044C0F7018681807F51F0F801FF27ED3345
:103A0000F10528F4E158FE4FE491E0933901980163
:103A100037572038310508F041C5D02E2FE0201748
:103A200008F477C08FEF93E00E945832811171C083
:103A300008EA11E0D1103AC01A8309834AE0842EC3
:103A4000CE0101960E949815882309F462C0813046
:103A500009F088C0CE0101960E949815813099F531
:103A6000CE0101960E94981560E570E0893311F04F
:103A700070E060E00E94681AE3CF9801305421158D
:103A8000304128F4F7018681807F09F0B6CF980194
:103A90003A9521153F4108F4B0CF9801205A32459C
:103AA0002032310508F4B3CFF801A9CF011534E075
:103AB000130779F1C8010E945832811101C0DA94CC
:103AC0000F5F1F4FB7CF823039F4CE0101960E94AD
:103AD00098150E94BA13B4CF833039F4CE01019601
:103AE0000E9498150E949013ABCF843081F4CE01D0
:103AF00001960E94981510E000E0482F4053550BA6
:103B00009A014A305105C0F00115110511F58111D6
:103B100097CF80912502877059F0F701858188231E
:103B200039F08091B10482FF03C082E00E94360F19
:103B30002296ECE00C94DE31809EC001819E900DB7
:103B400011248901080F191FCE0101960E949815B2
:103B5000D4CFEFE9FFE03197F1F700C0000001504A
:103B60001109D2CFE82FF0E0E551FE4F9490282FB5
:103B700026952695269530E0F901E552FE4FC49032
:103B80008770D12C082E02C0D594C7940A94E2F70E
:103B9000F1E0CF22DD24F901E553FE4FA490B12CD2
:103BA000082E02C0B594A7940A94E2F741E0A4223B
:103BB000BB24F901E554FE4F049110E002C01595B5
:103BC00007958A95E2F701701127C114D10419F005
:103BD00081EE0E94BA13A114B10419F086EE0E947E
:103BE000BA1370E060E0892D0E94681AA114B10434
:103BF00019F086EE0E949013C114D10419F081EEE1
:103C00000E9490130115110509F41ACF70E060E0CD
:103C10008CE230CFF801E851FC47E730F10548F578
:103C2000EC5EF14E0C944133261E2A1E1B1E221EF2
:103C30002E1E321E361E26E241EE61EEC7010E94A4
:103C4000E01B67CF27E245EE65EEF8CF26E241EEB6
:103C500060EEF4CF27E245EE64EEF0CF26E241EECF
:103C600062EEECCF27E245EE66EEE8CF28E241E0D7
:103C7000EBCF06315CE7150709F4C9C007372CE71D
:103C8000120709F46EC108373CE7130709F04BC16E
:103C900082E068C18091B00481608093B00495C0D7
:103CA0008091B10488608093B1048FC08091B0048A
:103CB0008260F3CF8091B0048460EFCF8091B00434
:103CC0008860EBCF8091B1048160EDCF8091B10429
:103CD0008260E9CF8091B0048061DFCF8091B00431
:103CE0008062DBCF8091B0048064D7CF0E948810BF
:103CF0008091B0048068D1CF8091B0048860DCCF1F
:103D00008091B1048260E0CF8091B0048E7FC5CFF6
:103D10008091B104877FC7CF8091B0048D7FBDCFE4
:103D20008091B0048B7FB9CF8091B004877FB5CFED
:103D30008091B1048E7FB7CF8091B1048D7FB3CFD6
:103D40008091B0048F7EA9CF8091B0048F7DA5CFE4
:103D50008091B0048F7BA1CF0E9488108091B00425
:103D60008F779BCF8091B004877FDCCF8091B104A7
:103D70008D7FE0CF8091B00482FB992790F921E0FC
:103D8000922790FB82F990FB83F987CF8091B10451
:103D9000982F909591708E7F892B90FB81F983CF1E
:103DA0009091B004892F8F7B96FF806476CF0E941C
:103DB00088109091B004892F97FB87F980586DCFB8
:103DC00061E08EE090E00E947C326091B0047091DE
:103DD000B10484E090E00E949A320E94881099CE4B
:103DE00060E0EFCF9091B004892F8F7E94FF8061C7
:103DF00054CF9091B004892F8E7F90FF81604DCF7A
:103E00009091B104892F877F93FF88604CCF809178
:103E10000A0281110AC089E20E94070803C085E3F3
:103E20000E9431080E94361074CE85E3F5CF82726D
:103E3000F801E052F847EB30F10508F06CC0ED5D99
:103E4000F04E0C9441332E1F591F5E1F631F681FD5
:103E50006D1F721F771F7C1F811F861F8091F803C3
:103E600080FF1EC0282F2E7F2093F8033091F90386
:103E70004091FA035091FB036091FC037091FD03A4
:103E80008091FE039091FF030E948B170E94CD0842
:103E90008091E70281608093E7020E94D40839CEC6
:103EA00081608093F80361E0869586950E94701C7E
:103EB00030CE882329F00E94BA1C2BCE8823D9F358
:103EC0000E94C51C26CE882329F00E94731821CE9B
:103ED0008823D9F30E947D181CCE882329F00E94E4
:103EE000591817CE8823D9F30E94661812CE88235A
:103EF00029F00E943F180DCE8823D9F30E944C1858
:103F000008CE882329F00E94871803CE8823D9F38E
:103F10000E94A118FECD07378CE71807F9F0083783
:103F2000ECE71E0711F19801205E32452032310581
:103F300028F5911135C00F7181E090E09C0102C01D
:103F4000220F331F0A95E2F78901622F83E090E088
:103F50000E947C32802F0E94590FDBCD81E09111AD
:103F600005C081E00E94290F03C082E00E944D0F2E
:103F700043E062E081E00E94090FCBCD992381F0FC
:103F800003303CE7130709F483C008F066C001154D
:103F90005CE7150709F46FC001301C4709F47EC0C7
:103FA000F701858100811181882309F485C0C8014A
:103FB0000E94E915D82E682FC8010E94CF0EB801C3
:103FC0008D2D0E94DB150E944E0D8C01982EF7015D
:103FD000B580A680A2943FE0A3228091250287703D
:103FE00009F1CB2CBB20F9F0812F807F803469F060
:103FF00080E2800F8830B0F0812F807E803229F4FB
:10400000F1E0F01778F4AA2069F08091B10482FF02
:1040100009C082E00E94360F809125028770CC246F
:10402000C3948111C12CD12ED2942FE0D2222BE047
:104030002D1508F4A5C0ED2DF0E0EF5DFF4D0C94BB
:10404000413361206120992099202E21C020C02079
:10405000C0204D21BB21CC21CC210B359CE7190779
:1040600049F10C35ECE71E07D9F00A351C4709F079
:1040700097CF81E01CC00E9488102FEF34E34CE002
:10408000215030404040E1F700C000000E94E707A7
:104090006FEF7FEF90E080E00E949A320E94D6148A
:1040A0008091B10482FB882780F991E089270E94E2
:1040B000BB1876CF80E0FBCFC8010E949B0ED82EA4
:1040C0007ECF312F3F70D32E107F19F0D29490EF16
:1040D000D922802FBB20B9F0DD2069F090E2900F4B
:1040E000983010F0011109C080915002D82AD09266
:1040F00050020E943610802F41C080912702D82A9A
:10410000D0922702F6CF0E949013DD20C9F1005E05
:10411000083010F0911004C08D2D0E94640E06C06E
:10412000D09480912702D822D09227020E94361084
:1041300027C0412F4F70D42E107F103219F0D29427
:1041400080EFD822992051F051E0951609F466C00D
:10415000BB2009F472C0AA20B1F1CDCF8091B10487
:1041600082FD2DC0BB2029F1DD2039F08091500265
:10417000D82AD09250020E94361080E00E94BA13D2
:10418000CC2009F4B6C08091250280FDB2C0F701B1
:1041900015828695869586950E944D0FC7010E94CF
:1041A000D11C809125028695869586950E94290FBF
:1041B000A0C080E00E949013DD2011F3ADCFBB20A2
:1041C00099F0A11004C08D2D0E948613D9CF81E0F3
:1041D000A812D6CF809126029D2D9823D91681F260
:1041E000D82AD0922602CCCFA110CACF8D2D0E9402
:1041F0007F13909126028D2D892329F08D2D809596
:1042000089238093260280910B029D2D982309F427
:10421000B7CFD094D822D0920B02B2CFBB2029F0D6
:1042200095E09A1508F4ACCFCECFE4E0EA1508F497
:10423000A7CF8D2D0E947F13A3CFAA20D1F30933DE
:1042400049F4FFEF27EE33E0F15020403040E1F732
:1042500000C00000802F0E94901392CF812F86957E
:104260008695837041F0813079F088EF8D0D843030
:1042700008F086CF3CC0C8019370B11002C080E046
:1042800090E00E948A087CCFC8019370B11002C0F0
:1042900080E090E00E94650873CF812F8370B1F5B4
:1042A000B11025C0402F429546954770440F440FEA
:1042B000802F8F70042E01C0880F0A94EAF720E047
:1042C00004FF07C02FE030E001C0220F4A95EAF753
:1042D0002095169516951370123099F080F4309150
:1042E0009802113059F0822B83230E94590F0E94AB
:1042F000AF0860E0C7010E9447161ACC832B822BBF
:10430000F4CF282B809198028227EFCF8695BB208F
:1043100011F0812F8170882351F3402F42954695EB
:104320004770440F440F802F8F70042E01C0880FF8
:104330000A94EAF720E004FF07C02FE030E001C054
:10434000220F4A95EAF720951695169513701230AC
:1043500069F050F43091A602113029F0822B8323AA
:104360000E94060FC4CF832B822BFACF282B80917B
:10437000A6028227F5CF1F70BB2039F0812F0E9443
:104380004D0F802F0E948613B2CF802F0E947F1383
:10439000812F0E94290FABCF802F42EF9416E1F1BD
:1043A000491580F050EF9516F1F091EF9916A1F0B4
:1043B000BB2009F45FC0AA2009F459C0802F0E94D5
:1043C000BA1353CFE3EF9E1671F1F4EF9F12F0CFC3
:1043D0009091B10492FD32C0812F8F71BB2001F109
:1043E0000E944D0F42CFBB2091F024E02A1508F423
:1043F0003CCF1F7181E090E0012E01C0880F0A942C
:10440000EAF79091A60289270E94060F2ECF35E089
:104410003A1508F42ACFEDCF812F8F71BB2001F31D
:104420000E94290F22CF80E0BB2071F31F7181E031
:10443000012E01C0880F0A94EAF7E6CFBB2061F095
:10444000812F8F7192FFCCCF48E0849F900111247F
:10445000236020932502C4CF81E00E94360F51E0F3
:104460005A1508F002CF82E00E94360FFECE812F4F
:104470008F71B6CFAA2079F0893349F48FEF97EE88
:10448000E3E081509040E040E1F700C00000802F61
:104490000E949013EACE812F8F71C2CFF801E851AC
:1044A000FC47E730F10508F4BBCB109208059801F2
:1044B00030572332310508F035C084E090E00E9487
:1044C00066329093B1048093B004F801E150F04754
:1044D000E232F10508F0DECBE059FD4D0C9441339A
:1044E000841EF91E8C1E561E5A1E901E5E1E941EA1
:1044F000A01E6A1EF21E6E1EA41E721EA81ED01ED4
:10450000761EAC1ED71E7C1EB21EBA1E621E981EE0
:10451000661E9C1E801EB61EC61EE01EF01E501E8D
:10452000881E001F809150020631FCE71F0709F02A
:104530007ECC8A7A91E009F490E090930A0281118E
:104540006ECC89E26DCCCF93DF9380912402807F83
:1045500009F04DC080912302882309F448C0E091FE
:1045600005055091CC04C0911F02D0911E026091AC
:1045700020027091210247E05E17C9F18E2F90E072
:10458000E49FF0011124E353FB4F2481222391F196
:10459000489FF001499FF00D1124DF01A353BB4F49
:1045A00011962C9111972C1325C02C912D1322C0FC
:1045B00015962C91159721111DC012962D913C91A5
:1045C000261B370B283C3105A8F4809124028F70FC
:1045D000806180932402ED52FB4F80818F70806157
:1045E00080838EE192E00E94D11C0E94910EDF91A7
:1045F000CF910895FC013196E770BECFA4E1B0E001
:10460000E4E0F3E20C94C2318C0186E0F801DE01B3
:104610001F9601900D928A95E1F7F8018481E5805B
:104620009EE1A92E92E0B92E90912202911128C00C
:10463000882319F1EE20F1F0C8010E942516F82E0A
:104640008823C1F087E0F801D50101900D928A9589
:10465000E1F780912202813031F480911E02909125
:104660001F020E9418160E94A3228F2D6496ECE070
:104670000C94DE31C8010E94D11CFF24F394F5CFC5
:10468000D080C18082809380F0902302209120020C
:1046900030912102A401421B530BFF2009F4D8C022
:1046A000483C510508F091C08823F9F290911F020F
:1046B00080912402282F207F09F055C0C91214C010
:1046C00090911E02D91210C0E11047C08F70806116
:1046D000809324028EE192E00E94D11C80912402FA
:1046E000F8018683F12CC1CFE11037C06C2D8D2DE0
:1046F0000E9456066C2D8D2D0E945606E82E8111C3
:10470000F1CFDF86C88A8F8598890E941816292FD5
:1047100022952F70243058F49F70223080F0992316
:1047200091F0F8019681907F71F4FE2C9ECF2A5073
:10473000223068F0C8010E94D11CEF2CF6CF9923DB
:1047400011F0882391F3805E8830A0F7EECF803F90
:1047500060F3815F833070F7E8CF8091240281603D
:1047600080932402BFCFC91207C090911E02D912B4
:1047700003C0EE2009F48DC0C8010E9425168823CD
:1047800009F478CFEE2009F475CF809124028032AD
:1047900088F020911E0230911F02398728879B865E
:1047A0008A86909122029C871D868E87CE0108966C
:1047B0000E94D11C87E0F801AEE1B2E001900D92B9
:1047C0008A95E1F70E94A32258CF90912402292FC5
:1047D000207F51F48EE192E00E94D11C87E0F50128
:1047E00011928A95E9F77ECF882309F43ECF809114
:1047F0001F028C1110C080911E02D8120CC0E11053
:104800000AC09683C8010E94D11C87E0F50111926D
:104810008A95E9F72ACFC8010E942516882309F452
:1048200029CFEE2009F426CF80912402803210F2A5
:1048300020911E0230911F023A8329839C828B8231
:10484000909122029D831E828F83CE010196B0CF6C
:10485000483C5105D0F6882309F40FCFFE2CEE20FA
:1048600009F408CF80911F028C1120C080911E0294
:10487000D8121CC08091240280FD0FC0982F907F19
:1048800061F08683903F31F0982F907F905F8F701A
:10489000892B8683C8010E94D11C87E0F801AEE114
:1048A000B2E001900D928A95E1F7DFCEC8010E9437
:1048B000251681117FCF809124028160809324028C
:1048C000C8010E94D11CD1CEABE1B0E0EAE6F4E22F
:1048D0000C94CB314E8B5F8B688F798F8A8F9B8F37
:1048E0009111109227021D8A86E0FE017696DE0164
:1048F0001F9601900D928A95E1F78B89882351F0DC
:1049000061E0CE010F960E94471661E0CE010F963E
:104910000E94471687E0FE013F96DE01189601903F
:104920000D928A95E1F7CE0108960E94FE22811130
:104930002AC087E0FE013896DE01119601900D92A3
:104940008A95E1F78C858823F1F02091CC0430E042
:10495000C9010196877099274091050548171906E6
:1049600059F197E0929FD001939FB00D1124A3536A
:10497000BB4FFE01319601900D929A95E1F780931D
:10498000CC040E94910E17E0809105059091CC0413
:104990008917F9F0819FC001112483539B4F0E9416
:1049A000FE228823B1F08091050590E00196877082
:1049B000992780930505E8CF0E9488101092CC04B7
:1049C0001092050587E0EEE1F2E0DF011D928A9585
:1049D000E9F76B96E3E00C94E731A3E1B0E0E3EF95
:1049E000F4E20C94C1318E01045F1F4F88E0D801BE
:1049F0001D928A95E9F783E9E82E81E0F82E680197
:104A0000AA24A394B12C2DE9822E21E0922EF70145
:104A100081917F018F3F09F440C0F894E82FE2951F
:104A2000EF70F0E021A18F70A50102C0440F551F67
:104A30008A95E2F7CA01922F982B91A392A18095B3
:104A4000892382A3789400C0E7E9F1E0712C31E07A
:104A500021912F3F09F4A2C0A22FA295AF70B0E020
:104A600090968C9190E02F7002C0959587952A952D
:104A7000E2F780FD93C0832F782A330F8E169F06AE
:104A800039F7F701319780818F3F11F00E942A0C8E
:104A900050EA5A95F1F7D6017C92BFEFCB1ADB0AA8
:104AA000E7E9EE16E1E0FE0609F0B1CF48E050E09C
:104AB000B8018EE892E00E94A033009741F028E010
:104AC000F801AEE8B2E001900D922A95E1F700916D
:104AD000970210E009521D4F892B09F461C081E053
:104AE000809355020E94CA1B9093540280935302F4
:104AF000F12CE090A804EE2009F4B2C019821A82C9
:104B00001B821C82809189028A3008F06FC04FEBB3
:104B100059E1BE016F5F7F4FC8010E94A314882333
:104B200009F48BC049E459E1BE016F5F7F4FC801B2
:104B30000E94A314882309F480C045E659E1BE0110
:104B40006F5F7F4FC8010E94A314882309F475C0CA
:104B50004BE159E1BE016F5F7F4FC8010E94A31472
:104B6000882309F46AC0109289028091960290E02D
:104B700044E050E0BE016F5F7F4F89529D4F0E941D
:104B8000A03321E020935C02892B09F048C0E12C7E
:104B90008E2D8F296396EDE00C94DD3180E06CCF93
:104BA000F0905502FF2009F4A3CFC0905302D0909B
:104BB00054020E94CA1B8C199D09059708F498CFCE
:104BC00044E050E06EE872E0C8010E94A033892BF7
:104BD00059F084E0EEE8F2E0D80101900D928A9558
:104BE000E1F71092550285CFF12CFBCFC090560211
:104BF000D09057020E94CA1B8C199D09843F914096
:104C000008F085CF80915C02882309F284E0FE01E0
:104C10003196DF011D928A95E9F710925C02E091CE
:104C20009602F0E0E952FD4F89819A81AB81BC8107
:104C300080839183A283B383ABCF809189028F3F1E
:104C400019F08F5F80938902809189028A3008F47D
:104C50008CCF0E94CA1B9093570280935602D2CFEA
:104C6000C0909602D12CF601E952FD4F6F0184E00D
:104C7000F801AAE6B2E001900D928A95E1F78AE682
:104C800092E00E9475068093690284E0EEE6F2E00D
:104C9000D60101900D928A95E1F780907202909072
:104CA0007302A0907402B0907502809158029091A6
:104CB0005902A0915A02B0915B0288169906AA0681
:104CC000BB06B1F08092580290925902A0925A020B
:104CD000B0925B020E94F807861A970AA80AB90ADE
:104CE00080928A0290928B02A0928C02B0928D02E6
:104CF0008BE0E6E7F2E0DE01119601900D928A95D5
:104D0000E1F78091760286958695D0907702C090E3
:104D10007802B090790200917F0210918002109287
:104D20008002112309F434CF10FF0BC0998190FF4A
:104D30001CC09091F80391609093F80360E00E948A
:104D4000701C11FF06C020E04B2D6C2D8D2D0E9494
:104D5000B11712FF04C0002359F00E94541C13FF26
:104D600017CF81E08093E20213CF0E942E09E9CF92
:104D70000E94CD08F4CFA6E0B0E0E1ECF6E20C949E
:104D8000CA310E94CA1B8C0180915102909152023B
:104D90008017910781F019821A820E94CA1B682F1E
:104DA00049815A81792F80E090E00E946424109319
:104DB0005202009351022696E4E00C94E6311F92D1
:104DC0000F920FB60F9211248F939F93AF93BF93BF
:104DD0008091B204811113C08091B3049091B40406
:104DE000A091B504B091B6044196A11DB11D809368
:104DF000B3049093B404A093B504B093B604BF91E8
:104E0000AF919F918F910F900FBE0F901F901895AB
:104E1000ABE2B0E0EEE0F7E20C94BC3185B780681D
:104E200085BF85B7806885BF84B7877F84BF0FB68D
:104E3000F894A8958091600088618093600010923A
:104E400060000FBE80E890E00FB6F8948093610098
:104E5000909361000FBE81E08093570188E29CE04F
:104E60009093E1018093E0010E948C060E942B0741
:104E70008091E20084608093E20078948091C20483
:104E8000882399F01091E9001F708091EC0080FF59
:104E90001AC180E8182B1092E9008091E80083FD88
:104EA0000E94AA101F701093E90082E084BD93E075
:104EB00095BD9AEF97BD80936E0010928A02109272
:104EC0008B0210928C0210928D020E947F1581112C
:104ED00002C00E946F158091D80080618093D80035
:104EE0002AE12A95F1F700C08091D900182F11709E
:104EF00080FD04C00E948C061092C2041093A80486
:104F00001093A90410932C01112309F4DEC0109210
:104F10004F018BE1809350010E94453080912C011C
:104F200080912C0190E0811101C094E09093970250
:104F300084E0891B8093960284E90E942A0C86E60D
:104F40000E942A0C87E90E942A0C86EC0E942A0CF7
:104F500007E911E05DE9E52E51E0F52ED8018D91CC
:104F60008D018F3F11F00E942A0CE016F106B1F777
:104F700088E0E7EDF2E0DF01282F1D922A95E9F79E
:104F8000EEE8F2E0DF011D928A95E9F790E080E01B
:104F90000E946632853E9E4F21F40E947F1581114A
:104FA00063C065EE7EEF90E080E00E949A3260E0A0
:104FB00082E090E00E947C3281E08093980261E080
:104FC00083E090E00E947C3260E074E184E090E055
:104FD0000E949A3260E086E090E00E947C3260E0BD
:104FE00087E090E00E947C3240E050E0BA0188E027
:104FF00090E00E948E3260E083E290E00E947C327A
:1050000060E08CE090E00E947C3260E08DE090E017
:105010000E947C3219821A821B821C821D821E828F
:105020001F82188648E050E067E170E0CE010196EB
:105030000E946C3240E050E0BA018FE190E00E94A3
:105040008E3280E00E94EC140E946F1540E050E028
:10505000BA018FE090E00E948E3240E050E0BA0149
:1050600083E190E00E948E3282E090E00E9458320C
:1050700080939A0284E090E00E9466329093B1049B
:105080008093B0040E94ED24EFEFF6E721E0E150B9
:10509000F0402040E1F700C000000E94ED24809124
:1050A000A904E0E0811101C0E4E0F0E0E952FD4F25
:1050B000808181FF10C06FEF7FEF90E080E00E9461
:1050C0009A320E94E70780E0E5CE8BE180934F01A2
:1050D0008093500123CF83E090E00E9458320E94D9
:1050E000590F8091A80481113FC182E08093D202C0
:1050F00080E8809309050E94E32E6BE070E082E86F
:1051000092E00E9472168823E9F18091D20265E054
:1051100070E081FD2BC18DE792E00E94721688231A
:1051200089F16DE070E08BE692E00E9472168823B0
:1051300049F10E94F807605A75418F4F9F4F609365
:105140000004709301048093020490930304ECE044
:10515000F5E080E092E0DF019C011D92215030409B
:10516000E1F7F0931307E09312078FEF9FEF90930F
:105170000B0580930A0581E0809305048093040465
:105180001092D30280919902811185C088E090E04D
:105190000E9460324B015C0183E290E00E94583231
:1051A000282F30E040E050E060E070E080E090E0E8
:1051B00000E20E945D33282939294A295B2920937E
:1051C000F8033093F9034093FA035093FB03609381
:1051D000FC037093FD038093FE039093FF033091D3
:1051E000E70233603093E7022C7F09F042C025E0EC
:1051F0002093F8031092F9033FEF3093FA0332E360
:105200003093FB031092FC0330E04FEF52E360E079
:105210000E948B1788E090E00E9460326B017C0155
:1052200083E290E00E945832282F30E040E050E0C6
:1052300060E070E080E090E00E945D33B22FA32F29
:10524000F42FE52F5B0197018601BC29A12BFE29D4
:10525000E32BB093F803A093F903F093FA03E093E0
:10526000FB036093FC03B092FD038093FE039093D5
:10527000FF030E943D090E94CD080E94CB08809147
:10528000F80380FF05C060E0869586950E94701C3B
:1052900081E0809399028091A804811102C00E944C
:1052A00048308DE291E09093AD048093AC044AE0E5
:1052B000442E512C612C712CBE016F5F7F4F6B010E
:1052C0008091C20410E402E1853009F487C00E9495
:1052D000ED240BE912E037EDE32E32E0F32ED70197
:1052E000F80191918D9122E0E33AF20709F480C030
:1052F0009817B9F38090A804B12CD701AD907D0127
:10530000F80121908F012A1431F1912C3324339428
:105310002A24822D8321B9F08820A9F099A2BAA26B
:105320000E94CA1B9CA38BA3F1E0FDA391E0832DF7
:105330008A2109F490E09EA349A15AA16BA17CA106
:105340008DA10E9464249394330C26E09212E1CF45
:10535000F8013197A082B39438E0B312CECF0E9407
:10536000410C41E04FA349C080E0C0CE88E792E005
:10537000D4CE8091C204843029F10E947F1610920D
:10538000B20488E190E00FB6F894A895809360008D
:105390000FBE1093600083B7817F846083BF83B7A3
:1053A000816083BF7894889583B78E7F83BF0FB663
:1053B000F894A895809160008861809360001092B5
:1053C00060000FBE0E94ED24E7EDF2E081918111B3
:1053D0008BC4AFEDB2E0AE17BF07C1F78091C20436
:1053E000853009F4C6CF0E9488100E94AF086FCFA5
:1053F000981380CF0E94BB261FA28091E6028823CB
:1054000009F465C08091E502E091F803E695E69520
:10541000E81BE093E102823009F090C0F0E0E25630
:10542000FD4FE4910E2F10E020E0E22E2AE0F22E54
:105430008091E202882361F01092E2020E94491CEE
:105440009093E0028093DF021092E4021092E30254
:105450000E94491CE091DF02F091E0029C012E1BAA
:105460003F0B2F3F3F4798F52091A5022223B1F033
:105470001092A5022091A3023091A402821B930BEB
:105480008F3F9F4758F4205D3A483093A402209301
:10549000A3028091E70288608093E702A090E30274
:1054A000B090E402E00FF11FF093E002E093DF021E
:1054B0008FED92E0F70109958091E3029091E4026B
:1054C000892B29F4AB2819F0F1E0F093A502809123
:1054D0000504882309F4FEC10091D4021091D5027D
:1054E0000E94CA1B801B910BC29708F401C10E9445
:1054F000CA1B9093D5028093D4028CE095E09093E0
:105500001307809312078091A804882309F42CC103
:1055100083EC92E00E94F00F8091A6020E945C0F43
:10552000813009F412C108F475C0823009F410C149
:10553000833009F410C182EA92E06EC0863059F4DB
:10554000F0E0E556FD4FE4910E2F10E090EFE92ECC
:1055500099E0F92E6DCF893061F4E695F0E0E856D8
:10556000FD4FE4910E2F10E081EFE82E8BE0F82E36
:105570005FCF8F3061F4E695F0E0EB56FD4FE4919C
:105580000E2F10E0B3E6EB2EBBE0FB2E51CF8531A2
:1055900059F4F0E0EE56FD4FE4910E2F10E0A5EE29
:1055A000EA2EAAE0FA2E44CF08E210E070E6E72ED9
:1055B0007AE0F72E883109F43BCF833249F4E0E9F1
:1055C000F2E005911491F5E1EF2EF9E0FF2E30CFD6
:1055D00004EF11E066E2E62E6AE0F62E843209F46A
:1055E00027CF00ED17E055EEE52E57E0F52E85327A
:1055F00009F01ECF8E2F63E00E941333E92FF0E0F5
:10560000E357FD4FE4910E2F10E0E2ECEE2EE6E1C1
:10561000FE2E0ECF8BEB92E00E9430108091B102F3
:10562000805D0E946F0F81ED92E00E94F00F8091EB
:10563000B002805D0E946F0F8DEC92E00E94F00F2F
:105640008090AE029090AF022091370130913801E6
:105650008216930621F42091AD02203279F19092C6
:1056600038018092370120E22093AD02B12CA12CA9
:105670001092AC020CEA12E0C501B401A301920140
:105680000E94E232605D603321F422E00C3A12079E
:1056900031F081149104A104B10409F460E2D8014D
:1056A0006E938D01C501B401A30192010E94E23203
:1056B00049015A01B2E0073A1B07F1F687EA92E086
:1056C0007C010196F70120812032D1F30190002066
:1056D000E9F78F0101501109E016F10608F43EC008
:1056E0008BEC92E00E94F00F809139010E946F0FC5
:1056F00080910A0590910B05892B09F4D2C0809105
:105700000504882309F4CDC08091D3028111C9C05A
:105710000E949A1620910A0530910B05211531053A
:1057200009F4BFC080E041E050E0A82EB12C1A017E
:10573000082E02C0220C331C0A94E2F7B901622140
:105740007321672BB1F48F5FF0CF85EB92E064CFCC
:105750008FEA92E061CF88EA92E05ECFD7018D9127
:105760007D010E946F0FB8CF83ED92E00E94F00F91
:10577000BFCF9091D20290FFF8C0880F880F880F9A
:1057800080933C0110923F01895F80933D0183E04B
:105790008093400124E630E047E050E06AE371E0A6
:1057A00088E70E94172F892B09F07BC095E0AA0C8F
:1057B000BB1C9A95E1F78091D20280FFE8C0E2EB32
:1057C000F2E080E2DF011D928A95E9F7E1EAF1E07B
:1057D000FBA7EAA74DE951E0FF24F394AAA5BBA5D6
:1057E0008D91BBA7AAA7FA012191AF012A0D3B2DEC
:1057F000311DB901645F7A4F79A768A790E08E5494
:105800009D4FFC0177E09F01281B390B0F2D01C034
:10581000000F2A95EAF788A499A410E0D4016D91AD
:105820004D016023272F211B2770E22E022E000C32
:10583000330BB62F01C0BB0FEA94EAF7EB2E31957C
:10584000219531092770332701C066952A95EAF71B
:10585000E62A6081E62AE0821F5F1830F9F671506F
:1058600031967F3F81F6EAA5FBA5E55AF14009F0A4
:10587000B5CF04E610E020E230E042EB52E060E415
:1058800088E70E94A12F892B61F4209430948091A5
:105890000A0590910B052822392230920B0520929F
:1058A0000A05809104048823A9F00E94F80700915A
:1058B0000004109101042091020430910304601B44
:1058C000710B820B930B6F3F7F4F8F4F9F4710F4ED
:1058D0000E947F164FA141110E949A160E94AF08A4
:1058E0009091D602891721F08093D6020E94F80782
:1058F0008091C204843009F0E3CC83E08093E90016
:105900008091E80082FFDCCC8091E80090E085FF88
:1059100006C00E94AB06882309F441C091E0809143
:10592000E8008B778093E800992309F4C9CC89813A
:10593000EFEFE80FE33108F05BC0F0E0EE55F34D18
:105940000C944133ED2CF12C2A2D4A2D522D5D2D36
:10595000602D602D602DF82CF82CE12DE42DE82D24
:105960000C2E2C2E2F2E322E552E8295880F8076BF
:1059700080933C0195013695279536952795209380
:105980003F01815E80933D012093400103CFA5013B
:10599000445F5A4F04E610E020E230E070CF80E22E
:1059A000E82EF12C8E010F5F1F4F8091E80085FDDE
:1059B0000AC08091E8008B778093E8000E94AB06D4
:1059C000882399F3ABCF8091F100D8018D938D019D
:1059D000B1E0EB1AF10849F7A1CF1A828CE08B8372
:1059E00019C08A81823009F49BC128F4813061F0AA
:1059F0008FEF89830FC08330A1F08430C9F71B82F9
:105A00001C821D821E8206C00E94F8079B838C8325
:105A10007D836E8340E250E0B60182E00E94211453
:105A20004FCC4B81DE01149690E080E0242F30E0D3
:105A3000B901680F791F6830710560F7E42FE80F2E
:105A4000F0E0E952FD4F50815D9301968C31910554
:105A500079F7E0CF8A81823049F0853049F680912C
:105A6000F80380FF0EC00E942E09D4CF6B817C8189
:105A70008D819E810E94473387E290E00E947C32B4
:105A8000C9CF81608093F80360E0869586950E9477
:105A9000701CC0CF4C816B818A810E94AC159D83A4
:105AA0008E83B8CF2D813E813227232732274C8128
:105AB0006B818A810E941515ADCF0E943C15AACF3B
:105AC0009A81923009F094CF8830E1F1893009F45D
:105AD00065C08B81823009F1A8F4813009F09ACF3A
